:020000040800F2
:1000000000200020E1040008CD040008CF0400080F
:1000100000000000000000000000000000000000E0
:10002000000000000000000000000000D1040008F3
:100030000000000000000000D3040008D504000800
:1000400031050008310500083105000831050008B8
:1000500031050008310500083105000831050008A8
:100060003105000831050008310500083105000898
:100070003503000831050008310500083105000886
:1000800031050008310500080000000031050008B6
:100090003105000831050008310500083105000868
:1000A0003105000831050008310500083105000858
:1000B00031050008000000003105000800000000C4
:1000C000002243088B4274D303098B425FD3030A97
:1000D0008B4244D3030B8B4228D3030C8B420DD3AA
:1000E000FF22090212BA030C8B4202D31212090238
:1000F00065D0030B8B4219D300E0090AC30B8B4276
:1001000001D3CB03C01A5241830B8B4201D38B0323
:10011000C01A5241430B8B4201D34B03C01A5241C8
:10012000030B8B4201D30B03C01A5241C30A8B420B
:1001300001D3CB02C01A5241830A8B4201D38B02F6
:10014000C01A5241430A8B4201D34B02C01A52419A
:10015000030A8B4201D30B02C01A5241CDD2C3090C
:100160008B4201D3CB01C01A524183098B4201D388
:100170008B01C01A524143098B4201D34B01C01A73
:10018000524103098B4201D30B01C01A5241C308EB
:100190008B4201D3CB00C01A524183088B4201D35A
:1001A0008B00C01A524143088B4201D34B00C01A46
:1001B0005241411A00D20146524110467047FFE7B2
:1001C00001B5002000F006F802BDC0460029F7D0B6
:1001D00076E770477047C04610B5064C2378002B71
:1001E00007D1054B002B02D0044800E000BF0123DB
:1001F000237010BD0C000020000000007C050008EA
:10020000044B10B5002B03D00349044800E000BFA5
:1002100010BDC04600000000100000207C05000852
:100220000D4A5169C023DB020B4353619022D20572
:100230001168C0231B010B431360084B1A68120C92
:1002400012041A601968064A0A431A605A69FF21A3
:100250008A435A617047C0460010024000040048BB
:100260005555000010B5234A916980239B000B432C
:100270009361214B9B68DB0704D51F4A91680223D9
:100280000B4393601C4B9B68DB07FBD41A4A9168B5
:1002900080231B060B439360174B9B68002BFBDBF3
:1002A000154B20229A625A6907210A435A61DA687B
:1002B00031318A43DA60D968802292010A43DA60D8
:1002C0005A6804210A435A600C4AC320800011581E
:1002D000FF24A14311508021490111601A680121B6
:1002E0000A431A609A680A439A60034B1B68DB074B
:1002F000FBD510BD001002400024014000E100E0E9
:10030000034A5369FF218B43184350617047C0462D
:100310000004004810B500F04DF8FFF781FFFFF72B
:10032000A1FF034A936804210B439360FEE7C04694
:100330000024014010B50A4B1B685B070FD5084B22
:100340001A6CD3009B181B0BDBB2082B00D90823B7
:1003500001209840C0B20138C0B2FFF7D1FF10BDF4
:100360000024014070B505000F4B1C680F4B197835
:10037000FA208000FFF7A4FE01002000FFF7A0FE96
:1003800000F088F800280DD1032D01D901200AE0E2
:10039000013000222900404200F078F8044B1D6033
:1003A000002000E0012070BD0800002000000020B7
:1003B0000400002010B5064A136810210B43136097
:1003C0000320FFF7CFFF00F069F8002010BDC04602
:1003D00000200240034A1168034B1B785B1813602E
:1003E0007047C046280000200000002070B500289B
:1003F00013DB8308C0339B00144C1A599446032224
:100400001040C000FC32150085406646AE438901AD
:100410000A40824032431A5170BD0F230340083B0B
:100420009B0806339B000A4A944663445A689446E4
:1004300003221040C000FC32140084406546A543EE
:1004400089010A4082402A435A60E5E700E100E062
:1004500000ED00E0013880235B0498420FD2094A86
:1004600050600948036A1B021B0AC02109060B439E
:10047000036200239360073313600020704701205C
:10048000FCE7C04610E000E000ED00E010B5FFF72B
:10049000ADFF10BD10B5FFF7DDFF10BD82B00A4BF8
:1004A000996901221143996199690A400092009A61
:1004B000DA69802149050A43DA61DB690B4001935F
:1004C000019B02B07047C04600100240FEE7FEE705
:1004D0007047704710B5FFF77DFF10BD70470000F3
:1004E0000D488546FFF7FAFF0C480D490D4A0023D9
:1004F00002E0D458C4500433C4188C42F9D30A4AD9
:100500000A4C002301E013600432A242FBD300F046
:1005100011F8FFF7FFFEFEE700200020000000209A
:100520000C0000209C0500080C0000202C0000207E
:10053000FEE7000070B500260C4C0D4D641BA410A6
:10054000A64209D1002600F019F80A4C0A4D641B96
:10055000A410A64205D170BDB300EB5898470136F0
:10056000EEE7B300EB5898470136F2E79405000830
:10057000940500089805000894050008F8B5C046E1
:10058000F8BC08BC9E467047F8B5C046F8BC08BC2D
:040590009E467047CC
:040594000102000858
:04059800D90100087D
:0C059C00010000000400000000127A00C2
:04000005080004E10A
:00000001FF
