:020000040800F2
:10000000002000203508000815080008170800081F
:1000100000000000000000000000000000000000E0
:1000200000000000000000000000000019080008A7
:1000300000000000000000001B0800081D08000868
:10004000850800088508000885080008850800085C
:10005000850800088508000885080008850800084C
:10006000850800088508000885080008850800083C
:10007000850800088508000885080008850800082C
:1000800085080008850800080000000085080008B1
:100090008508000861020008850800088508000836
:1000A00085080008850800088508000885080008FC
:1000B0008508000800000000850800080000000016
:1000C000002243088B4274D303098B425FD3030A97
:1000D0008B4244D3030B8B4228D3030C8B420DD3AA
:1000E000FF22090212BA030C8B4202D31212090238
:1000F00065D0030B8B4219D300E0090AC30B8B4276
:1001000001D3CB03C01A5241830B8B4201D38B0323
:10011000C01A5241430B8B4201D34B03C01A5241C8
:10012000030B8B4201D30B03C01A5241C30A8B420B
:1001300001D3CB02C01A5241830A8B4201D38B02F6
:10014000C01A5241430A8B4201D34B02C01A52419A
:10015000030A8B4201D30B02C01A5241CDD2C3090C
:100160008B4201D3CB01C01A524183098B4201D388
:100170008B01C01A524143098B4201D34B01C01A73
:10018000524103098B4201D30B01C01A5241C308EB
:100190008B4201D3CB00C01A524183088B4201D35A
:1001A0008B00C01A524143088B4201D34B00C01A46
:1001B0005241411A00D20146524110467047FFE7B2
:1001C00001B5002000F006F802BDC0460029F7D0B6
:1001D00076E770477047C04610B5064C2378002B71
:1001E00007D1054B002B02D0044800E000BF0123DB
:1001F000237010BD0C00002000000000E008000883
:10020000044B10B5002B03D00349044800E000BFA5
:1002100010BDC0460000000010000020E0080008EB
:1002200010B586B00C4B5A698021C9020A435A6145
:100230005B690B400093009B01AC1422002120005D
:1002400000F021FB0123019302932100034800F0F9
:100250002BF906B010BDC046001002400004004853
:1002600010B5074B1A681369DB0700D410BD0223D1
:100270005B4213610121034800F0DCF9F6E7C04658
:10028000280000200004004872B6FEE710B50C48B4
:100290000C4B03600C4B4360002383600B4AC2602D
:1002A000036143618033836100F088FA002804D140
:1002B000074B802292031A6010BDFFF7E5FFC0468E
:1002C00028000020004401403F1F0000E703000019
:1002D00000E100E010B51A4A136801218B43136056
:1002E000174B1B68DB07FBD4164A136801210B432D
:1002F0001360144B1B689B07FBD5124B1A68F8213F
:100300008A4378390A431A605A6870318A435A60BE
:100310005A680D490A405A605A6803218A435A6054
:10032000084B5B680C221A42FAD1084800F07AFAAE
:10033000032000F01DF8002800D110BDFFF7A4FF36
:100340000020024000100240FFF8FFFF00127A0078
:1003500010B500F035F8FFF7BDFFFFF761FFFFF7BD
:1003600095FF024800F09CF9FEE7C04628000020F7
:1003700070B505000F4B1C680F4B1978FA208000F0
:10038000FFF79EFE01002000FFF79AFE00F088F8BC
:1003900000280DD1032D01D901200AE001300022EF
:1003A0002900404200F078F8044B1D60002000E076
:1003B000012070BD08000020000000200400002083
:1003C00010B5064A136810210B4313600320FFF792
:1003D000CFFF00F037F9002010BDC04600200240DA
:1003E000034A1168034B1B785B1813607047C046C3
:1003F000700000200000002070B5002813DB830887
:10040000C0339B00144C1A59944603221040C0007C
:10041000FC32150085406646AE4389010A408240A1
:1004200032431A5170BD0F230340083B9B0806332B
:100430009B000A4A944663445A689446032210403B
:10044000C000FC32140084406546A54389010A407F
:1004500082402A435A60E5E700E100E000ED00E059
:10046000013880235B0498420FD2094A5060094842
:10047000036A1B021B0AC02109060B430362002307
:10048000936007331360002070470120FCE7C046EB
:1004900010E000E000ED00E010B5FFF7ADFF10BD8B
:1004A00010B5FFF7DDFF10BDF0B583B004000023E9
:1004B00056E0A6685F000320B8408643C868B8408D
:1004C0003043A060606890434E6836090122324094
:1004D0009A400243626053E0DE080836B60037599E
:1004E00005321A4092000F209040874308699040DF
:1004F00002003A43325156E0032600E000268640CF
:100500003000384302329200444E9051444A97687A
:10051000EA433E00AE434868C00201D53E002E4388
:100520003F488660C7683E0016404868800201D593
:100530003E002E433A48C66047683E001640486871
:10054000800301D53E002E433548466006683240A0
:100550004868C00301D52A003243314802600133A4
:1005600008680200DA4056D001229A400500154082
:100570001042F4D04E68032030400138012898D949
:10058000486803220240032A08D0E0685E00032284
:10059000B24090438A68B2400243E2604868032256
:1005A0000240022A98D020685E0003221700B7405C
:1005B000B8434F683A40B240024322604868C022C4
:1005C00092021042CBD017488669012216438661F9
:1005D000806902400192019A9A08901C80000F4E97
:1005E00087590320184080000F268640B743902685
:1005F000F605B44282D00C4EB44208D00B4EB44241
:1006000007D00B4EB44200D176E7052677E70126E6
:1006100075E7022673E703B0F0BDC0460000014055
:100620000004014000100240000400480008004897
:10063000000C0048426913000B401B0491430B431C
:100640008361704782B00A4B996901221143996115
:1006500099690A400092009ADA69802149050A43A3
:10066000DA61DB690B400193019B02B07047C04621
:100670000010024082B00268074B9A4201D002B0DB
:100680007047064B9A69802189020A439A619B69E7
:100690000B400193019BF2E700440140001002402F
:1006A0003D23C35C012B26D13C330222C254026895
:1006B000D36801210B43D3600368114A93420FD0E2
:1006C0008022D20593420BD00E4A934208D00E4AA4
:1006D000934205D01A6801210A431A6000200BE0FA
:1006E000996807220A40062A07D01A6801210A439E
:1006F0001A60002000E0012070470020FCE7C0469F
:10070000002C014000040040004001400368244ADE
:10071000904206D08022D205904202D0214A9042D7
:1007200003D1702293434A6813431D4A904212D06A
:100730008022D20590420ED01A4A90420BD01A4A1B
:10074000904208D0194A904205D0194A904202D0EE
:10075000184A904203D1184A1A40CB6813438022AA
:1007600093434A69134303608B68C3620B688362D7
:100770000B4B984208D00D4B984205D00C4B984239
:1007800002D00C4B984201D10B69036301234361F2
:100790000269134203D00369012293430361704746
:1007A000002C0140000400400020004000400140B7
:1007B0000044014000480140FFFCFFFF70B5041EEB
:1007C00026D03D23C35C002B1CD03D25022363555E
:1007D000210001C9FFF79AFF01234622A354083ADA
:1007E000A3540132A3540132A3540132A354013261
:1007F000A3540132A3540132A3540132A3546355CC
:10080000002070BD3C330022C254FFF733FFDCE709
:100810000120F6E7FEE7FEE77047704710B5FFF7E7
:10082000DFFD10BD014B18607047C0460800002076
:10083000704700000D488546FFF7FAFF0C480D4948
:100840000D4A002302E0D458C4500433C4188C422B
:10085000F9D30A4A0A4C002301E013600432A24291
:10086000FBD300F019F8FFF773FDFEE7002000202E
:10087000000000200C000020000900080C000020EF
:1008800074000020FEE703008218934200D17047F5
:1008900019700133F9E7000070B500260C4C0D4DBE
:1008A000641BA410A64209D1002600F019F80A4CD6
:1008B0000A4D641BA410A64205D170BDB300EB58CD
:1008C00098470136EEE7B300EB5898470136F2E758
:1008D000F8080008F8080008FC080008F8080008F4
:1008E000F8B5C046F8BC08BC9E467047F8B5C0468F
:0808F000F8BC08BC9E467047ED
:0408F80001020008F1
:0408FC00D901000816
:0C090000010000000400000000127A005A
:0400000508000835B2
:00000001FF
