:020000040800F2
:1000000000200020D10A0008B10A0008B30A000845
:1000100000000000000000000000000000000000E0
:10002000000000000000000000000000B50A000809
:100030000000000000000000B70A0008B90A00082C
:10004000210B0008210B0008210B0008210B0008E0
:10005000210B0008210B0008210B0008210B0008D0
:10006000210B0008210B0008210B0008210B0008C0
:10007000210B0008210B0008210B0008210B0008B0
:10008000210B0008210B000800000000210B0008D4
:10009000210B000885030008210B0008210B000834
:1000A000210B0008210B0008210B0008210B000880
:1000B000210B000800000000210B000800000000D8
:1000C000002243088B4274D303098B425FD3030A97
:1000D0008B4244D3030B8B4228D3030C8B420DD3AA
:1000E000FF22090212BA030C8B4202D31212090238
:1000F00065D0030B8B4219D300E0090AC30B8B4276
:1001000001D3CB03C01A5241830B8B4201D38B0323
:10011000C01A5241430B8B4201D34B03C01A5241C8
:10012000030B8B4201D30B03C01A5241C30A8B420B
:1001300001D3CB02C01A5241830A8B4201D38B02F6
:10014000C01A5241430A8B4201D34B02C01A52419A
:10015000030A8B4201D30B02C01A5241CDD2C3090C
:100160008B4201D3CB01C01A524183098B4201D388
:100170008B01C01A524143098B4201D34B01C01A73
:10018000524103098B4201D30B01C01A5241C308EB
:100190008B4201D3CB00C01A524183088B4201D35A
:1001A0008B00C01A524143088B4201D34B00C01A46
:1001B0005241411A00D20146524110467047FFE7B2
:1001C00001B5002000F006F802BDC0460029F7D0B6
:1001D00076E770477047C04610B5064C2378002B71
:1001E00007D1054B002B02D0044800E000BF0123DB
:1001F000237010BD40000020000000007C0B0008B0
:10020000044B10B5002B03D00349044800E000BFA5
:1002100010BDC04600000000440000207C0B000818
:1002200010B588B01B4B5A69802189020A435A6174
:100230005A690A400192019A5A698021C9020A4307
:100240005A615B690B400293029B03AC14220021AC
:10025000200000F066FC0123049300240BE00E4B09
:100260006200D35A03930D4BA200D05803A900F0AB
:10027000BDF90134E4B2072CF1D903A9012303939A
:1002800000224A608B609020C00500F0AFF908B0F2
:1002900010BDC046001002400400002014000020E1
:1002A00010B5002408E0064B6200D15A0022054830
:1002B00000F069FA0134E4B2072CF4D910BDC0464D
:1002C000040000200004004810B5FFF7E9FF0F4CC0
:1002D00022780F4B5200D15A01220E4800F053FAF7
:1002E0000D4B1A7852B223789B18DBB22370237817
:1002F000072B07D0054B1B78002B06D1064B01229C
:100300001A7002E0044BFF221A7010BD6400002036
:100310000400002000040048340000200138034B92
:10032000D86200225A62024B1860704700440140B4
:100330000000002070B500F0FBF804000F4B1B68B4
:10034000C51A90200121C00500F016FA00280FD12F
:10035000192D0DD9094B1C60094A137859424B419C
:10036000DBB21370002B04D0FA304000FFF7D6FF49
:1003700070BDFA208000FFF7D1FFF9E76000002090
:100380005C00002010B5034800F06DFA024B01221A
:100390001A7010BD680000206500002072B6FEE7EC
:1003A00010B50C480C4B03600C4B4360002383607A
:1003B0000B4AC260036143618033836100F04AFBF2
:1003C000002804D1074B802292031A6010BDFFF76A
:1003D000E5FFC04668000020004401403F1F0000C8
:1003E000E703000000E100E010B51A4A136801219C
:1003F0008B431360174B1B68DB07FBD4164A13684B
:1004000001210B431360144B1B689B07FBD5124B58
:100410001A68F8218A4378390A431A605A68703199
:100420008A435A605A680D490A405A605A68032143
:100430008A435A60084B5B680C221A42FAD108487A
:1004400000F03EFB032000F02FF8002800D110BD83
:10045000FFF7A4FF0020024000100240FFF8FFFF5A
:1004600000127A0010B500F047F8FFF7BDFFFFF764
:10047000D7FEFFF795FFFFF713FFFA208000FFF785
:100480004DFF074800F0B4F9FFF754FF054B1B7808
:10049000002BF9D0034B00221A70FFF715FFF3E78A
:1004A000680000206500002070B505000F4B1C6837
:1004B0000F4B1978FA208000FFF702FE01002000A0
:1004C000FFF7FEFD00F08EF800280DD1032D01D9B5
:1004D00001200AE0013000222900404200F07EF8AD
:1004E000044B1D60002000E0012070BD3C00002096
:1004F000350000203800002010B5064A136810218E
:100500000B4313600320FFF7CFFF00F043F90020F7
:1005100010BDC04600200240034A1168034B1B78FF
:100520005B1813607047C046B00000203500002003
:10053000014B18687047C046B000002070B5002815
:1005400013DB8308C0339B00144C1A5994460322D2
:100550001040C000FC32150085406646AE4389015C
:100560000A40824032431A5170BD0F230340083BBA
:100570009B0806339B000A4A944663445A68944693
:1005800003221040C000FC32140084406546A5439D
:1005900089010A4082402A435A60E5E700E100E011
:1005A00000ED00E0013880235B0498420FD2094A35
:1005B00050600948036A1B021B0AC02109060B434D
:1005C000036200239360073313600020704701200B
:1005D000FCE7C04610E000E000ED00E010B5FFF7DA
:1005E000ADFF10BD10B5FFF7DDFF10BDF0B583B056
:1005F0000400002356E0A6685F000320B84086434D
:10060000C868B8403043A060606890434E683609BF
:10061000012232409A400243626053E0DE0808360D
:10062000B600375905321A4092000F209040874398
:100630000869904002003A43325156E0032600E038
:10064000002686403000384302329200444E9051DA
:10065000444A9768EA433E00AE434868C00201D569
:100660003E002E433F488660C7683E0016404868FB
:10067000800201D53E002E433A48C66047683E00DE
:1006800016404868800301D53E002E433548466039
:10069000066832404868C00301D52A003243314819
:1006A0000260013308680200DA4056D001229A4005
:1006B000050015401042F4D04E6803203040013848
:1006C000012898D9486803220240032A08D0E0682C
:1006D0005E000322B24090438A68B2400243E26067
:1006E000486803220240022A98D020685E00032254
:1006F0001700B740B8434F683A40B2400243226007
:100700004868C02292021042CBD017488669012265
:1007100016438661806902400192019A9A08901CF2
:1007200080000F4E87590320184080000F26864016
:10073000B7439026F605B44282D00C4EB44208D09E
:100740000B4EB44207D00B4EB44200D176E70526DB
:1007500077E7012675E7022673E703B0F0BDC046D0
:100760000000014000040140001002400004004865
:1007700000080048000C004803690B4201D001202A
:1007800070470020FCE7002A01D081617047816238
:10079000FCE7000082B00A4B99690122114399617C
:1007A00099690A400092009ADA69802149050A4352
:1007B000DA61DB690B400193019B02B07047C046D0
:1007C0000010024082B00268074B9A4201D002B08A
:1007D0007047064B9A69802189020A439A619B6996
:1007E0000B400193019BF2E70044014000100240DE
:1007F0003D23C35C012B26D13C330222C254026844
:10080000D36801210B43D3600368114A93420FD090
:100810008022D20593420BD00E4A934208D00E4A52
:10082000934205D01A6801210A431A6000200BE0A8
:10083000996807220A40062A07D01A6801210A434C
:100840001A60002000E0012070470020FCE7C0464D
:10085000002C0140000400400040014070477047F8
:1008600070477047704770B504000368DE681D6903
:10087000AA070ED5B2070CD5032252421A610123F2
:10088000037703689B699B0751D0FFF7E9FF0023BB
:1008900023776B0712D5730710D5236805225242C0
:1008A0001A610223237723689A69C0239B001A42A6
:1008B00043D02000FFF7D4FF002323772B0710D568
:1008C00033070ED52368092252421A610423237785
:1008D0002368DB699B0737D02000FFF7C1FF0023A7
:1008E0002377EB0612D5F30610D523681122524266
:1008F0001A61082323772368DA69C0239B001A4210
:1009000029D02000FFF7ACFF00232377EB0701D5A8
:10091000F30727D42B0601D533062BD46B0601D55C
:1009200073062FD4AD0601D5B60633D470BDFFF7DC
:1009300096FF2000FFF795FFA9E72000FFF78FFF44
:100940002000FFF78EFFB7E72000FFF788FF2000A9
:10095000FFF787FFC3E72000FFF781FF2000FFF7C5
:1009600080FFD1E72368022252421A612000FFF77C
:1009700075FFCFE72368812252421A61200000F000
:1009800096F8CBE72368412252421A612000FFF714
:1009900069FFC7E72368212252421A61200000F054
:1009A00085F8C3E70368244A904206D08022D20526
:1009B000904202D0214A904203D1702293434A6868
:1009C00013431D4A904212D08022D20590420ED08D
:1009D0001A4A90420BD01A4A904208D0194A9042C3
:1009E00005D0194A904202D0184A904203D1184AC1
:1009F0001A40CB681343802293434A691343036030
:100A00008B68C3620B6883620B4B984208D00D4B16
:100A1000984205D00C4B984202D00C4B984201D121
:100A20000B690363012343610269134203D0036925
:100A30000122934303617047002C014000040040F1
:100A400000200040004001400044014000480140B7
:100A5000FFFCFFFF70B5041E26D03D23C35C002BB6
:100A60001CD03D2502236355210001C9FFF79AFFE1
:100A700001234622A354083AA3540132A35401325D
:100A8000A3540132A3540132A3540132A3540132BE
:100A9000A3540132A3546355002070BD3C3300229F
:100AA000C254FFF78FFEDCE70120F6E7704770477E
:100AB000FEE7FEE77047704710B5FFF72DFD10BD4C
:100AC000014B18607047C0463C0000207047000092
:100AD0000D488546FFF7FAFF0C480D490D4A0023E3
:100AE00002E0D458C4500433C4188C42F9D30A4AE3
:100AF0000A4C002301E013600432A242FBD300F051
:100B000019F8FFF7AFFCFEE70020002000000020EE
:100B1000400000209C0B000840000020B400002092
:100B2000FEE703008218934200D170471970013329
:100B3000F9E7000070B500260C4C0D4D641BA410A5
:100B4000A64209D1002600F019F80A4C0A4D641B90
:100B5000A410A64205D170BDB300EB5898470136EA
:100B6000EEE7B300EB5898470136F2E7940B000824
:100B7000940B0008980B0008940B0008F8B5C046C9
:100B8000F8BC08BC9E467047F8B5C046F8BC08BC27
:040B90009E467047C6
:040B94000102000852
:040B9800D901000877
:100B9C00E703000001000200040008001000200020
:100BAC004000800000040048000400480004004895
:100BBC0000040048000400480004004800040048F9
:100BCC0000040048010100000400000000127A003B
:0400000508000AD114
:00000001FF
