:020000040800F2
:1000000000200020B50F0008950F0008970F00088A
:1000100000000000000000000000000000000000E0
:10002000000000000000000000000000990F000820
:1000300000000000000000009B0F00089D0F00085A
:10004000051000080510000805100008051000083C
:10005000051000080510000805100008051000082C
:10006000051000080510000805100008051000081C
:10007000051000080510000805100008051000080C
:100080000510000805100008000000000510000819
:1000900005100008310800080510000805100008C8
:1000A00005100008051000080510000805100008DC
:1000B0000510000800000000051000080000000006
:1000C00003B47146490840004900095E49008E4466
:1000D00003BC7047002243088B4274D303098B4250
:1000E0005FD3030A8B4244D3030B8B4228D3030C08
:1000F0008B420DD3FF22090212BA030C8B4202D3AA
:100100001212090265D0030B8B4219D300E0090AD1
:10011000C30B8B4201D3CB03C01A5241830B8B42DA
:1001200001D38B03C01A5241430B8B4201D34B03C3
:10013000C01A5241030B8B4201D30B03C01A524128
:10014000C30A8B4201D3CB02C01A5241830A8B42AD
:1001500001D38B02C01A5241430A8B4201D34B0296
:10016000C01A5241030A8B4201D30B02C01A5241FA
:10017000CDD2C3098B4201D3CB01C01A52418309AE
:100180008B4201D38B01C01A524143098B4201D3E8
:100190004B01C01A524103098B4201D30B01C01A13
:1001A0005241C3088B4201D3CB00C01A524183088D
:1001B0008B4201D38B00C01A524143088B4201D3BA
:1001C0004B00C01A5241411A00D20146524110461A
:1001D0007047FFE701B5002000F0F0F802BDC0460F
:1001E0000029F7D076E7704703460B437FD40022FF
:1001F00043088B4274D303098B425FD3030A8B42BB
:1002000044D3030B8B4228D3030C8B420DD3FF2224
:10021000090212BA030C8B4202D31212090265D0F2
:10022000030B8B4219D300E0090AC30B8B4201D3A5
:10023000CB03C01A5241830B8B4201D38B03C01AEC
:100240005241430B8B4201D34B03C01A5241030B63
:100250008B4201D30B03C01A5241C30A8B4201D314
:10026000CB02C01A5241830A8B4201D38B02C01ABF
:100270005241430A8B4201D34B02C01A5241030A36
:100280008B4201D30B02C01A5241CDD2C3098B421B
:1002900001D3CB01C01A524183098B4201D38B0198
:1002A000C01A524143098B4201D34B01C01A52413B
:1002B00003098B4201D30B01C01A5241C3088B4280
:1002C00001D3CB00C01A524183088B4201D38B006B
:1002D000C01A524143088B4201D34B00C01A52410D
:1002E000411A00D201465241104670475DE0CA0FE4
:1002F00000D04942031000D34042534000229C46A4
:1003000003098B422DD3030A8B4212D3FC228901AD
:1003100012BA030A8B420CD3890192118B4208D383
:10032000890192118B4204D389013AD0921100E0E5
:100330008909C3098B4201D3CB01C01A52418309F9
:100340008B4201D38B01C01A524143098B4201D326
:100350004B01C01A524103098B4201D30B01C01A51
:100360005241C3088B4201D3CB00C01A52418308CB
:100370008B4201D38B00C01A5241D9D243088B4221
:1003800001D34B00C01A5241411A00D201466346C4
:1003900052415B10104601D34042002B00D5494228
:1003A000704763465B1000D3404201B5002000F067
:1003B00005F802BD0029F8D016E770477047C0461F
:1003C00010B5064C2378002B07D1054B002B02D02B
:1003D000044800E000BF0123237010BDA0000020EE
:1003E0000000000048210008044B10B5002B03D08A
:1003F0000349044800E000BF10BDC04600000000F3
:10040000A40000204821000810B588B01B4B5A6991
:10041000802189020A435A615A690A400192019A6D
:100420005A698021C9020A435A615B690B400293F1
:10043000029B03AC14220021200000F061FF012385
:10044000049300240BE00E4B6200D35A03930D4B30
:10045000A200D05803A900F03BFB0134E4B2072C02
:10046000F1D903A90F23039300234B6001338B6061
:100470009020C00500F02CFB08B010BD0010024019
:10048000080000201800002010B500240AE0074BE7
:100490006200D15A064BA200D058002200F0E5FBC2
:1004A0000134E4B2072CF2D910BDC0460800002088
:1004B0001800002010B5072800D910BD044B4200D9
:1004C000D15A044B8000C058012200F0CEFBF4E763
:1004D000080000201800002010B5072800D910BD22
:1004E000044B4200D15A044B8000C058002200F057
:1004F000BCFBF4E70800002018000020421E034B5C
:10050000DA6200225A62024B1860704700440140D0
:100510000000002010B5064B1870FFF7B5FF054B23
:1005200000221A70044B01211970044B1A7010BD7F
:1005300005000020E400002004000020D10000207D
:1005400070B500F067FA04009025ED050121280040
:1005500000F084FB06000221280000F07FFB04214C
:10056000280000F07BFB0821280000F077FB002E1C
:1005700012D12D4B1B68E31A322B0DD92A4B1C606C
:100580002A4A137859424B41DBB21370002B3AD000
:10059000FA204000FFF7B2FF90200221C00500F0D2
:1005A0005DFB00280AD1204B5B68E31A322B05D98A
:1005B0001D4B5C601E4B1B78002B29D19020042121
:1005C000C00500F04BFB00280AD1174B9B68E31ACB
:1005D000322B05D9144B9C60154B1B78012B1AD17B
:1005E00090200821C00500F039FB00280AD10E4BED
:1005F000DB68E31A322B05D90B4BDC600C4B1B7804
:10060000022B0CD170BDFA208000FFF777FFC3E703
:10061000FFF780FFD2E70130FFF77CFFE0E7023011
:10062000FFF778FFEEE7C046D4000020D20000209C
:100630000500002010B5FFF727FF0D4C2078C0B251
:10064000FFF738FF0B4B1A7852B223789B18DBB2B6
:1006500023702378072B07D0054B1B78002B06D17E
:10066000044B01221A7002E0024BFF221A7010BDE7
:10067000E40000200400002010B5002404E0200065
:10068000FFF72AFF0134E4B2072C07D80F4B1B7881
:10069000A342F4D02000FFF70DFFF3E70C4B1978CD
:1006A00049B20A4A13785B18DBB213701378072B30
:1006B00007D0064B1B78002B06D1054B01221A7080
:1006C00002E0034BFF221A7010BDC046E400002078
:1006D0000400002070B500F09DF905004D4B1B781B
:1006E000DCB2012B38D0022C50D0002C00D08CE092
:1006F00000F0B8FCC217120E8018FF2303409B1AAB
:10070000DBB2454A1370FFF7BFFE444B00221A705C
:1007100001E00134E4B2072C10D83F4B1B78234191
:10072000DB07F6D52000FFF7C5FE3C4A1378D9B2A7
:100730000133DBB213703A4B5C54EAE700F092FCF1
:100740003849FFF737FE6431AC466144364B1960D7
:10075000304B01221A7070BD334B1B688342FAD8AC
:100760002E4B1B78002B03D12A4B00221A70F2E784
:1007700000F078FC3321FFF71DFE6431AC46614484
:100780002A4A1160234B02221A70E4E7274B1B68A8
:100790008342E0D8214B1B78002B03D11D4B002254
:1007A0001A70D8E700F05EFC1C4B1978C9B2FFF74D
:1007B00001FECCB2FF230B40194AD05CC0B2FFF758
:1007C0008BFE06E0631C164AD35CDBB21355013482
:1007D000E4B2124B1B78013B9C42F3DB0F4A1378C7
:1007E000013BDBB213701378002B03D1094B0022BD
:1007F0001A70B0E700F036FC3321FFF7DBFD6431FF
:10080000AC466144094A1160A5E7024B00221A7008
:10081000A1E7C046D1000020D0000020BC0000208D
:10082000C000002079050000CC000020C800002096
:1008300010B5034800F089FA024B01221A7010BD6E
:10084000E8000020E500002072B6FEE710B50C4875
:100850000C4B03600C4B4360002383600B4AC26067
:10086000036143618033836100F066FB002804D19B
:10087000074B802292031A6010BDFFF7E5FFC046C8
:10088000E8000020004401403F1F0000E703000093
:1008900000E100E010B51A4A136801218B43136090
:1008A000174B1B68DB07FBD4164A136801210B4367
:1008B0001360144B1B689B07FBD5124B1A68F82179
:1008C0008A4378390A431A605A6870318A435A60F9
:1008D0005A680D490A405A605A6803218A435A608F
:1008E000084B5B680C221A42FAD1084800F05AFB08
:1008F000032000F04BF8002800D110BDFFF7A4FF43
:100900000020024000100240FFF8FFFF00127A00B2
:1009100010B500F063F8FFF7BDFFFFF775FDFFF7B7
:1009200095FF00F077F800F06FFBFFF7ADFDFA20C0
:100930008000FFF7E3FD124800F0CCF905E0FFF777
:100940009BFE104B1B78022B17D0FFF7F9FD0E4BC7
:100950001B78002BF5D00C4B00221A70094B1B782A
:10096000DAB2012BEBD0022AEBD0002A02D1FFF73A
:1009700061FEE6E7FFF788FDE3E7FFF7ABFEE4E79C
:10098000E800002005000020E500002070B505000B
:100990000F4B1C680F4B1978FA208000FFF79AFB69
:1009A00001002000FFF796FB00F08EF800280DD123
:1009B000032D01D901200AE0013000222900404224
:1009C00000F07EF8044B1D60002000E0012070BDA7
:1009D00040000020380000203C00002010B5064AEE
:1009E000136810210B4313600320FFF7CFFF00F0C3
:1009F00043F9002010BDC04600200240034A1168A0
:100A0000034B1B785B1813607047C0463001002011
:100A100038000020014B18687047C04630010020A4
:100A200070B5002813DB8308C0339B00144C1A599F
:100A3000944603221040C000FC32150085406646F3
:100A4000AE4389010A40824032431A5170BD0F23E0
:100A50000340083B9B0806339B000A4A94466344C4
:100A60005A68944603221040C000FC3214008440AF
:100A70006546A54389010A4082402A435A60E5E75A
:100A800000E100E000ED00E0013880235B049842C3
:100A90000FD2094A50600948036A1B021B0AC02191
:100AA00009060B43036200239360073313600020A1
:100AB00070470120FCE7C04610E000E000ED00E0D8
:100AC00010B5FFF7ADFF10BD10B5FFF7DDFF10BD8E
:100AD000F0B583B00400002356E0A6685F00032051
:100AE000B8408643C868B8403043A060606890430F
:100AF0004E683609012232409A400243626053E058
:100B0000DE080836B600375905321A4092000F2029
:100B1000904087430869904002003A43325156E0C2
:100B2000032600E00026864030003843023292005F
:100B3000444E9051444A9768EA433E00AE434868A9
:100B4000C00201D53E002E433F488660C7683E0084
:100B500016404868800201D53E002E433A48C660E0
:100B600047683E0016404868800301D53E002E438A
:100B700035484660066832404868C00301D52A00FF
:100B8000324331480260013308680200DA4056D02F
:100B900001229A40050015401042F4D04E6803200F
:100BA00030400138012898D9486803220240032ABE
:100BB00008D0E0685E000322B24090438A68B240E9
:100BC0000243E260486803220240022A98D020686B
:100BD0005E0003221700B740B8434F683A40B24066
:100BE000024322604868C02292021042CBD01748CC
:100BF0008669012216438661806902400192019A4A
:100C00009A08901C80000F4E8759032018408000DE
:100C10000F268640B7439026F605B44282D00C4E8C
:100C2000B44208D00B4EB44207D00B4EB44200D1B0
:100C300076E7052677E7012675E7022673E703B016
:100C4000F0BDC04600000140000401400010024019
:100C50000004004800080048000C004803690B42EB
:100C600001D0012070470020FCE7002A01D08161FB
:100C700070478162FCE7000082B00A4B996901224B
:100C80001143996199690A400092009ADA698021BA
:100C900049050A43DA61DB690B400193019B02B00D
:100CA0007047C0460010024082B00268074B9A426B
:100CB00001D002B07047064B9A69802189020A432D
:100CC0009A619B690B400193019BF2E7004401404C
:100CD000001002403D23C35C012B26D13C3302228D
:100CE000C2540268D36801210B43D3600368114AE0
:100CF00093420FD08022D20593420BD00E4A9342EA
:100D000008D00E4A934205D01A6801210A431A609E
:100D100000200BE0996807220A40062A07D01A68CB
:100D200001210A431A60002000E0012070470020E2
:100D3000FCE7C046002C0140000400400040014098
:100D40007047704770477047704770B5040003687C
:100D5000DE681D69AA070ED5B2070CD503225242E0
:100D60001A610123037703689B699B0751D0FFF742
:100D7000E9FF002323776B0712D5730710D523688B
:100D8000052252421A610223237723689A69C023FD
:100D90009B001A4243D02000FFF7D4FF00232377A3
:100DA0002B0710D533070ED52368092252421A614A
:100DB000042323772368DB699B0737D02000FFF7E4
:100DC000C1FF00232377EB0612D5F30610D5236865
:100DD000112252421A61082323772368DA69C0235B
:100DE0009B001A4229D02000FFF7ACFF0023237795
:100DF000EB0701D5F30727D42B0601D533062BD4F7
:100E00006B0601D573062FD4AD0601D5B60633D4D3
:100E100070BDFFF796FF2000FFF795FFA9E72000C0
:100E2000FFF78FFF2000FFF78EFFB7E72000FFF7E7
:100E300088FF2000FFF787FFC3E72000FFF781FF4F
:100E40002000FFF780FFD1E72368022252421A6197
:100E50002000FFF775FFCFE72368812252421A6115
:100E6000200000F096F8CBE72368412252421A6135
:100E70002000FFF769FFC7E72368212252421A6169
:100E8000200000F085F8C3E70368244A904206D0AA
:100E90008022D205904202D0214A904203D1702292
:100EA00093434A6813431D4A904212D08022D205D0
:100EB00090420ED01A4A90420BD01A4A904208D063
:100EC000194A904205D0194A904202D0184A9042DD
:100ED00003D1184A1A40CB681343802293434A69CE
:100EE000134303608B68C3620B6883620B4B9842A9
:100EF00008D00D4B984205D00C4B984202D00C4BB9
:100F0000984201D10B6903630123436102691342D3
:100F100003D003690122934303617047002C014011
:100F20000004004000200040004001400044014017
:100F300000480140FFFCFFFF70B5041E26D03D2392
:100F4000C35C002B1CD03D2502236355210001C941
:100F5000FFF79AFF01234622A354083AA354013213
:100F6000A3540132A3540132A3540132A3540132D9
:100F7000A3540132A3540132A3546355002070BD21
:100F80003C330022C254FFF78FFEDCE70120F6E776
:100F900070477047FEE7FEE77047704710B5FFF7F0
:100FA0002DFD10BD014B18607047C0464000002069
:100FB000704700000D488546FFF7FAFF0C480D49C1
:100FC0000D4A002302E0D458C4500433C4188C42A4
:100FD000F9D30A4A0A4C002301E013600432A2420A
:100FE000FBD300F0E3F9FFF793FCFEE700200020BD
:100FF00000000020A0000020A0220008A000002087
:1010000084020020FEE70000104B70B51C6805004C
:10101000226B002A16D1182000F058FA021E206315
:1010200004D146210A4B0B4800F0E8F90A4B002195
:1010300003600A4B43600A4B83600B2383810120CA
:101040001061516100231561536170BD5000002093
:1010500060210008772100080E33CDAB34126DE615
:10106000ECDE0500164B70B51D682C6B002C17D1FB
:10107000182000F02BFA041E286305D1220052210B
:10108000104B114800F0BAF9104B01220360104BCD
:101090004360104B83600B23838100230261436113
:1010A000206961690C4A0D4B01F026F801220023EA
:1010B00080185941206161614800400870BDC046F8
:1010C0005000002060210008772100080E33CDABCE
:1010D00034126DE6ECDE05002D7F954C2DF4515851
:1010E000002310B504000360436083608181436680
:1010F000C281036143618361190008225C3000F002
:10110000FFF80B4B246263620A4BA3620A4BE36253
:101110000A4B23630A4B9C4205D00A4B9C4202D0E7
:10112000094B9C4203D12000583000F063F910BDF8
:101130006912000891120008C9120008F51200088F
:10114000340100209C0100200402002010B5034A55
:101150000349044800F06CF810BDC046440000206C
:10116000511700085400002041680B4B10B50400D3
:10117000994201D000F0ECFAA168084B994202D0E4
:10118000200000F0E5FAE168054B994202D020000A
:1011900000F0DEFA10BDC046340100209C010020A2
:1011A0000402002010B5094B094A04211A600948BD
:1011B0000022FFF795FF012209210748FFF790FF62
:1011C000022212210548FFF78BFF10BD6C020020A0
:1011D0004D110008340100209C0100200402002071
:1011E00010B5024800F007F910BDC0467502002096
:1011F00010B5024800F000F910BDC046750200208D
:1012000010B50400FFF7ECFF236A002B02D0FFF7B4
:10121000EFFF10BD044B2362044B1B68002BF6D17B
:10122000FFF7C0FFF3E7C046691100086C02002019
:10123000F7B51400002600900191A5686768013F8A
:1012400004D52468002CF8D13000FEBDAB89012BF9
:1012500008D90E22AB5E013304D029000098019B0F
:10126000984706436835EAE770B50C000E25495FDC
:1012700000F074F8002803DB636D1B18636570BD14
:10128000A389024A1340A381F9E7C046FFEFFFFF9D
:10129000F8B51F008B8905000C001600DB0505D58D
:1012A0000E23C95E0022022300F044F8A389054AF8
:1012B00028001340A38132000E23E15E3B0000F0C2
:1012C00061F8F8BDFFEFFFFF70B50C000E25495F18
:1012D00000F030F80C22A35E421C03D1044A1340F4
:1012E000A38170BD802252011343A3816065F8E79A
:1012F000FFEFFFFF10B50E23C95E00F009F810BD27
:1013000003008218934200D1704719700133F9E746
:10131000002370B5064C05000800236000F09CFE19
:10132000431C03D12368002B00D02B6070BDC04646
:101330007002002070B50500080011000022064C64
:1013400022601A0000F0B0FE431C03D12368002B7A
:1013500000D02B6070BDC0467002002070B5050043
:10136000080011000022064C22601A0000F0A4FEC2
:10137000431C03D12368002B00D02B6070BDC046F6
:101380007002002070B50500080011000022064C14
:1013900022601A0000F0A6FE431C03D12368002B34
:1013A00000D02B6070BDC0467002002070B50026D2
:1013B0000C4C0D4D641BA410A64209D1002600F070
:1013C000C3FE0A4C0A4D641BA410A64205D170BD91
:1013D000B300EB5898470136EEE7B300EB58984757
:1013E0000136F2E798220008982200089C220008A3
:1013F0009822000870477047704700007FB51400BE
:101400001A00094B06001B68D868084B002C01D154
:10141000074B1C000193009133000649029400F031
:10142000C3F900F0E3F9C04650000020262200086E
:10143000612200083322000870B50500002910D091
:101440000C1F2368002B00DAE418280000F0EAF8EB
:101450001D4A1368002B05D163601460280000F05A
:10146000E9F870BDA34208D9206821188B42F3D156
:1014700019685B6809182160EEE71A005B68002BA9
:1014800001D0A342F9D911685018A0420BD12068AD
:101490000918501811608342E0D118685B68411840
:1014A00011605360DAE7A04202D90C232B60D5E724
:1014B000206821188B4203D119685B6809182160E4
:1014C00063605460CAE7C0467C02002010B5034B3D
:1014D0000100186800F026F810BDC046500000203A
:1014E00070B50F4C0E0021680500002902D100F0F4
:1014F0006BF920603100280000F066F9431C03D12D
:1015000001246442200070BD0323C41C9C43A042FC
:10151000F8D0211A280000F057F90130F2D1EFE796
:1015200078020020F7B50322CB1C93430833050053
:101530001F000C2B34D20C27B94233D8280000F0FE
:1015400071F8374E33681C00002C2FD13900280069
:10155000FFF7C6FF0400431C5FD134680094009B72
:10156000002B4AD19C4252D023682800E3180099EE
:10157000019300F029F9019B834248D12368280098
:10158000FF1A3900FFF7ACFF013040D02368DB19A8
:10159000236033685A68002A33D1009B336019E016
:1015A000002BC9DA0C232B600020FEBD2168C91B6B
:1015B00020D40B290AD9E2192760A34204D1326052
:1015C00063681160536005E05A60F9E76268A342FE
:1015D0000ED13260280000F02DF8200007220B30D9
:1015E000231D9043C21A9842DFD01B1AA350DCE798
:1015F0005A60EFE723006468A6E7009C63680093E5
:10160000ADE71A005B68A342FBD10023DAE70C23A5
:1016100028002B6000F00EF8C6E70760DAE7C04646
:101620007C02002010B50248FFF7E5FE10BDC04661
:101630007402002010B50248FFF7DEFE10BDC04660
:1016400074020020F7B50C228B5E05000C001A070F
:1016500057D44A68002A02DC0A6C002A4FDDE76A88
:10166000002F4CD0002280212E682A601A004901E8
:101670000A400B4234D0626DA3895B0706D56368CC
:10168000D21A636B002B01D0236CD21A00232800DE
:10169000E76A216AB8470C23E25E431C06D1296839
:1016A0001D2947D8294BCB40DB0743D50023636076
:1016B00023692360D20405D5431C02D12B68002B7B
:1016C00000D16065616B2E60002918D0230044337F
:1016D000994202D02800FFF7AFFE002363630EE0BB
:1016E00001232800216AB8470200431CC4D12B689B
:1016F000002BC1D01D2B01D0162B1AD12E6000203B
:101700001DE00E69002EFAD00F680E60BA1B019220
:1017100000229B0700D14A69A260019B002BEEDDED
:10172000A36A32001F002800019B216AB8470028E5
:1017300006DCA289402301201343A3814042FEBD61
:10174000019B36181B1A0193E7E7C04601004020B1
:101750000B6970B505000C00002B02D11D0028009C
:1017600070BD002804D0036A002B01D1FFF748FDAB
:101770000C22A35E002BF1D0626ED20704D49B052D
:1017800002D4A06DFFF737FE28002100FFF75AFFB3
:10179000636E0500DB07E2D4A3899B05DFD4A06D4F
:1017A000FFF72AFEDBE700000EB417B5054C05ABCA
:1017B00004CB01002068019300F046F81EBC08BC71
:1017C00003B0184750000020002370B5064C0500F8
:1017D0000800236000F078FC431C03D12368002B31
:1017E00000D02B6070BDC04670020020062010B5EE
:1017F00000F07EFB012000F07DFC936810B5013BFA
:101800009360002B04DA9469A34207DB0A2905D010
:101810001368581C10601970080010BD00F0A0FA81
:101820000100F9E7F8B506000F001400D518AC4226
:1018300001D1002007E021783A003000FFF7DDFFFA
:101840000134431CF3D1F8BDF0B59FB00E00170072
:101850001C000290002804D0036A002B01D1FFF77E
:10186000CFFC736EDB0705D4B3899B0502D4B06D42
:10187000FFF7C1FDB3891B0702D53369002B13D1D4
:101880003100029800F0AEFA00280DD0736EDB072D
:1018900003D5012040421FB0F0BDB3899B05F8D4A9
:1018A000B06DFFF7A9FDF4E7002306AD6B612033AF
:1018B0006B761033AB7605943C002378002B01D077
:1018C000252B43D1E31B0393BC420BD03A003100DC
:1018D0000298FFF7A7FF013000D1A4E06B69039ADB
:1018E0009B186B612378002B00D19CE00122002320
:1018F00052426A6002AA533201342B60EB60AB6043
:101900001370AB65544F05222178380000F010FBAE
:101910002A68611C00281BD1D30603D52023532736
:1019200002A8C355130703D52B23532702A8C35579
:1019300023782A2B13D000200A21EB682278303A32
:10194000092A4FD9002812D0EB6010E00134B4E727
:101950000123C01B834013430C002B60D2E7059B7F
:10196000181D1B680590002B36DBEB600C002378FC
:101970002E2B0CD163782A2B39D1059B02341A1DEA
:101980001B680592002B01DA01235B426B60334F29
:1019900003223800217800F0CBFA002806D040233B
:1019A000C01B83402A68013413432B602178062230
:1019B0002B48297600F0BCFA002843D0294800289B
:1019C00027D10722059B07339343083305936B699F
:1019D000671C1B186B616FE75B42EB6002231343CC
:1019E0002B60C3E74B43012001349B18A6E700237B
:1019F0000A201A0001346B6021783039092903D993
:101A0000002BC4D06A60C2E742430123013452185C
:101A1000F2E705AA009229003200134B029800E079
:101A200000BF431CD3D1736EDB0705D4B3899B057C
:101A300002D4B06DFFF7E0FCB3895B0600D528E760
:101A4000686928E705AA009229003200064B02982F
:101A500000F07CF8E5E7C046622200086822000832
:101A60006C2200080000000025180008F7B51600D9
:101A700001938A680B690C000090934200DA13000E
:101A80002200336043321278002A01D001333360E0
:101A900023689B0602D5336802333360226806232D
:101AA00015001D401A4227D0230043331B785A1ECD
:101AB00093412268920630D4220001990098089D33
:101AC0004332A847013025D0062223680025134061
:101AD000042B05D13368E568ED1AEB43DB171D4095
:101AE000A3682269934201DD9B1AED180026B542D6
:101AF00020D1002010E00135E36832689B1AAB4228
:101B0000D2DD2200012301990098089F1932B847BD
:101B10000130F0D101204042FEBD3020E1184331B8
:101B2000087021005A1C45310978A218433202334B
:101B30001170C1E72200012301990098089F1A3211
:101B4000B8470130E6D00136D1E70000F0B58BB0E0
:101B50000793059006920A7E0C004331109B039177
:101B6000782A09D8622A0BD8002A00D1BAE07A492B
:101B70000491582A00D18EE0250042352A7022E0D7
:101B8000100063381528F7D8FEF79AFA16001F00E0
:101B9000F6FFF6FFF6FFF6FF1F00F6FFF6FFF6FF73
:101BA000F6FF9F0035007E00F6FFF6FFB000F6FF5F
:101BB0003500F6FFF6FF820025001A684235111D38
:101BC000196013682B7001239EE01A682068111DAC
:101BD0001960050601D5166803E04006FBD5002311
:101BE000D65E002E03DA2D23039A764213705A4BE9
:101BF0000A27049313E01A68216840CA080602D431
:101C0000490600D5B6B21A60237E534A0A270492C9
:101C10006F2B00D1023F2300002243331A70636808
:101C2000A360002B06DB04212268039D8A43226007
:101C300033430CD0039D30003900FEF7D1FA049BEA
:101C4000013D5B5C2B70330006009F42F3D9082FE7
:101C500009D12368DB0706D5626823699A4202DC52
:101C60003023013D2B70039B5B1B2361079B2100ED
:101C700000930598069B09AAFFF7F8FE013048D1AA
:101C8000012040420BB0F0BD202221680A432260AF
:101C9000782232490491210045310A70196822687E
:101CA00040C9100602D4500600D5B6B21960D30759
:101CB00002D5202313432360002E01D01027AAE76A
:101CC0002022236893432360F8E71A682568101DD3
:101CD0006169186013682E0601D5196002E06D066F
:101CE000FBD519800023039D2361BFE71A68111DEE
:101CF0001960156800212800626800F019F90028B1
:101D000001D0401B6060636823610023039A137055
:101D1000ACE72A00236906990598079DA84701307A
:101D2000AED023689B0715D4099BE0689842A9DAD6
:101D30001800A7E72200012306990598079E19328B
:101D4000B04701309CD00135E368099A9B1AAB4239
:101D5000F0DCE9E70025F7E7732200088422000899
:101D6000F8B505000F001400002804D0036A002B0A
:101D700001D1FFF745FAA369A360A3891B0702D528
:101D80002369002B09D12100280000F02BF800283E
:101D900003D0012676423000F8BD23692068C01ABE
:101DA0006369834205DC21002800FFF7D1FC00288D
:101DB000EFD1A3680130013BA3602368FEB25A1C37
:101DC00022601F706369834204D0A389DB07E2D5D8
:101DD0000A2EE0D121002800FFF7BAFC0028DAD053
:101DE000D7E700002C4B70B5050018680C000028E0
:101DF00004D0036A002B01D1FFF702FA0C22A35E84
:101E00001A0721D4DA0607D409222A6040220120C9
:101E10001343A381404238E05A0712D5616B002971
:101E200008D023004433994202D02800FFF704FB76
:101E3000002363632422A389934300226260226902
:101E4000226008221343A3812369002B0BD1A02316
:101E50008022A1899B0092000B40934203D0210075
:101E6000280000F09BF80C22A35E01211A000A4012
:101E70000B420BD00022A26062695242A261002094
:101E80002269824201D11A06C0D470BD990700D4DC
:101E90006269A260F3E7C0465000002070B50400FC
:101EA0000D001F2904D9162303600120404270BD94
:101EB000C36B002B04D08A009B181A68002A08D133
:101EC000200000F031F82A000100200000F01AF88C
:101ED000EDE7012A09D0511C03D11623036001202C
:101EE000E5E700212800196090470020DFE70000A7
:101EF00010B5034B01001868FFF7D0FF10BDC046B6
:101F000050000020002370B5064C050008001100A9
:101F1000236000F0C1F8431C03D12368002B00D0DC
:101F20002B6070BD7002002010B500F0A5F810BD48
:101F3000C9B28218904201D10020704703788B42C9
:101F4000FBD00130F6E7000070B50E001D000E2337
:101F5000C95E140096B000290CDA80210B00B2890A
:101F60001340114214D18022D20000202B60226045
:101F700016B070BD6A4600F04BF80028EDDBF02289
:101F8000019B12021340044A9B185A425341EAE74C
:101F900000234022E9E7C04600E0FFFFF7B5022535
:101FA0008B8906000C001D4206D0230047332360B6
:101FB000236101236361F7BD6A4601ABFFF7C4FFEC
:101FC000009F30003900FFF7ADFA0C22A35E002815
:101FD00006D19A05EFD4032293431D43A581E4E77C
:101FE00080221343A381019B206020616761002B45
:101FF000E1D030000E23E15E00F01CF80028DAD0BA
:102000000323A2899A43023B1343A381D3E7000031
:10201000002370B5064C050008001100236000F095
:1020200023F8431C03D12368002B00D02B6070BD24
:1020300070020020002370B5064C050008002360E4
:1020400000F022F8431C03D12368002B00D02B6042
:1020500070BDC0467002002058220120014B404252
:102060001A6070477002002058220120014B404244
:102070001A6070477002002058220120014B404234
:102080001A607047700200205822024B00201A602C
:102090007047C0467002002058220120014B404288
:1020A0001A6070477002002058220120014B404204
:1020B0001A6070477002002058220120014B4042F4
:1020C0001A60704770020020044A1368002B03D086
:1020D0001818106018007047014BF9E780020020C3
:1020E0008802002058220120014B40421A607047AC
:1020F00070020020FEE7C046F0B50F001104090C85
:10210000060C050404000800C6462D0C9C46130C62
:10211000684371435D435E436D18030C5B1900B562
:10212000994202D980214902761800041D0C000C46
:102130001B04181863467A435C43AD19A11849196A
:1021400080BCB846F0BDC046F8B5C046F8BC08BC77
:102150009E467047F8B5C046F8BC08BC9E4670471E
:102160005245454E54206D616C6C6F6320737563EE
:10217000636565646564002F686F6D652F696C67C2
:102180002F616374696F6E732D72756E6E657273F5
:102190002F787061636B2D6465762D746F6F6C732F
:1021A0002F322F5F776F726B2F61726D2D6E6F6E96
:1021B000652D656162692D6763632D787061636B5E
:1021C0002F61726D2D6E6F6E652D656162692D6771
:1021D00063632D787061636B2F6275696C642D6128
:1021E00073736574732F6275696C642F77696E33CE
:1021F000322D7836342F736F75726365732F6E6569
:10220000776C69622D63796777696E2F6E65776C7D
:1022100069622F6C6962632F7374646C69622F72D8
:10222000616E642E63002C2066756E6374696F6E38
:102230003A2000617373657274696F6E2022257392
:1022400022206661696C65643A2066696C652022AB
:102250002573222C206C696E6520256425732573F7
:102260000A00232D302B2000686C4C006566674502
:1022700046470030313233343536373839414243FE
:1022800044454600303132333435363738396162AF
:082290006364656600000000B4
:04229800E90300084E
:04229C00C103000872
:1022A000E803000001030000010002000400080030
:1022B0001000200040008000000400480004004896
:1022C00000040048000400480004004800040048DE
:1022D0000004004800040048010000000400000061
:1022E00000127A000000000003000000340100200A
:1022F0005400002000000000340100209C01002058
:1023000004020020000000000000000000000000A7
:1023100000000000000000000000000000000000BD
:1023200000000000000000000000000000000000AD
:10233000000000000000000000000000000000009D
:0400000508000FB52B
:00000001FF
